:020000040800F2
:1000000000500020910E0008810900088D090008A9
:100010009309000899090008AB09000800000000D6
:10002000000000000000000000000000D90E0008E1
:10003000B109000800000000D90E0008D90E000820
:10004000D90E0008D90E0008D90E0008D90E0008F4
:10005000D90E0008D90E00088D0C0008D90E000832
:10006000AD0C0008C10C0008E10C0008D90E000816
:10007000D90E0008D90E0008D90E0008D90E0008C4
:10008000D90E0008D90E0008D90E0008D90E0008B4
:10009000D90E0008D90E0008D90E0008D90E0008A4
:1000A000D90E0008D90E0008D90E0008D90E000894
:1000B000D90E0008D90E00089F090008D90E0008C3
:1000C000D90E0008D90E0008D90E0008D90E000874
:1000D000D90E00086D0E0008F90B0008D90E0008B3
:1000E000010D0008D90E0008D90E0008000000001C
:1000F0000000000000000000000000000000000000
:0C01000000000000000000005FF808F1A3
:10010C0010B5054C237833B9044B13B10448AFF345
:10011C0000800123237010BD7C0000200000000033
:10012C001819000808B5034B1BB103490348AFF37A
:10013C00008008BD00000000800000201819000895
:10014C0080B483B000AF7860054A7B6843F0BF632E
:10015C0043F40033D36000BF0C37BD4680BC7047FE
:10016C0000ED00E080B487B000AF786000237B61C5
:10017C0000233B610F23FB607B68DB78002B3AD0BC
:10018C00274BDB68DB431B0A03F007037B617B69AE
:10019C00C3F104033B61FA687B6922FA03F3FB6049
:1001AC007B685B781A463B6902FA03F37B617B68D8
:1001BC009B781A46FB6813407A6913437B617B6911
:1001CC001B017B61174A7B681B787969C9B21344A0
:1001DC000A4683F800237B681B7803F01F03114940
:1001EC007A6812785209D2B21046012202FA03F34D
:1001FC0041F820300FE07B681B7803F01F0309499E
:10020C007A6812785209D2B2104601229A4000F153
:10021C00200341F8232000BF1C37BD4680BC70472B
:10022C0000ED00E000E100E080B483B000AF786046
:10023C007B68042B06D1094B1B68084A43F0040366
:10024C00136005E0054B1B68044A23F0040313609C
:10025C0000BF0C37BD4680BC704700BF10E000E00B
:10026C0080B485B000AF78600023FB730023BB60C3
:10027C000C4B1B687A681340BB600A4B5A697B684D
:10028C001340002B05D0BB68002B02D00123FB735D
:10029C0001E00023FB73FB7B18461437BD4680BC82
:1002AC00704700BF0004014080B483B000AF786099
:1002BC00034A7B68536100BF0C37BD4680BC704756
:1002CC000004014080B489B000AF7860396000232D
:1002DC00FB6100233B610023BB610023FB60002317
:1002EC007B610023BB603B68DB7803F00F03FB6191
:1002FC003B68DB7803F01003002B05D03B689B7840
:10030C001A46FB691343FB613B681B88DBB2002B6D
:10031C0044D07B681B687B610023BB6138E0012201
:10032C00BB6902FA03F3FB603B681B881A46FB6847
:10033C0013403B613A69FB689A4226D1BB699B002A
:10034C00FB600F22FB6802FA03F3BB60BB68DB4364
:10035C007A6913407B61FA69FB6802FA03F37A69E4
:10036C0013437B613B68DB78282B05D10122BB69E9
:10037C009A407B685A6108E03B68DB78482B04D1D3
:10038C000122BB699A407B681A61BB690133BB616E
:10039C00BB69072BC3D97B687A691A603B681B88D9
:1003AC00FF2B46D97B685B687B610023BB613AE01D
:1003BC00BB690833012202FA03F3FB603B681B881C
:1003CC001A46FB6813403B613A69FB689A4227D195
:1003DC00BB699B00FB600F22FB6802FA03F3BB6056
:1003EC00BB68DB437A6913407B61FA69FB6802FAEC
:1003FC0003F37A6913437B613B68DB78282B05D1C7
:10040C00BB69083301229A407B685A613B68DB78F0
:10041C00482B05D1BB69083301229A407B681A61CD
:10042C00BB690133BB61BB69072BC1D97B687A6996
:10043C005A6000BF2437BD4680BC704780B487B07B
:10044C0000AF786000237B6100233B610023FB60DD
:10045C000023BB604F4B5B6803F00C037B617B6933
:10046C00082B11D07B69082B3AD87B69002B03D061
:10047C007B69042B04D033E07B68474A1A6033E075
:10048C007B68454A1A602FE0424B5B6803F470139B
:10049C003B61404B5B6803F48033FB603B699B0C16
:1004AC0002333B61FB68002B06D13B693B4A03FBE3
:1004BC0002F27B681A6017E0364B5B6803F400337A
:1004CC00002B06D03B69354A03FB02F27B681A60AD
:1004DC000AE03B69304A03FB02F27B681A6003E0D6
:1004EC007B682D4A1A6000BF2A4B5B6803F0F0034F
:1004FC007B617B691B097B61294A7B6913441B78EF
:10050C00DBB2BB607B681A68BB68DA407B685A60F8
:10051C00204B5B6803F4E0637B617B691B0A7B61A6
:10052C001F4A7B6913441B78DBB2BB607B685A683B
:10053C00BB68DA407B689A60164B5B6803F46053C7
:10054C007B617B69DB0A7B61154A7B6913441B78F1
:10055C00DBB2BB607B685A68BB68DA407B68DA60E8
:10056C000C4B5B6803F440437B617B699B0B7B61A9
:10057C000C4A7B6913441B78DBB2BB607B68DA687E
:10058C00BB68B2FBF3F27B681A6100BF1C37BD4637
:10059C0080BC70470010024000127A0000093D0038
:1005AC00000000201000002080B483B000AF786001
:1005BC000B46FB70FB78002B06D0094B9A69084957
:1005CC007B6813438B6106E0054B9A697B68DB43C0
:1005DC00034913408B6100BF0C37BD4680BC70478C
:1005EC000010024080B58CB000AF786039600023F9
:1005FC00FB620023BB6200237B6200233B6200236F
:10060C00FB617B68FB617B681B8A9BB2FB62FA6AAD
:10061C004CF6FF731340FB623B68DB881A46FB6A9F
:10062C001343FB62FB6A9AB27B681A827B689B89D4
:10063C009BB2FB62FA6A4EF6F3131340FB623B6803
:10064C009A883B681B8913439AB23B685B891343B6
:10065C009BB21A46FB6A1343FB62FB6A9AB27B6835
:10066C009A817B689B8A9BB2FB62FA6A4FF6FF43C6
:10067C001340FB623B689B891A46FB6A1343FB627F
:10068C00FB6A9AB27B689A8207F108031846FFF757
:10069C00D5FEFB692E4A934202D17B69BB6201E015
:1006AC003B69BB627B689B899BB21BB2002B0CDA4B
:1006BC00BA6A13469B0013449A001A443B681B68A1
:1006CC005B00B2FBF3F37B620BE0BA6A13469B0050
:1006DC0013449A001A443B681B689B00B2FBF3F36B
:1006EC007B627B6A1B4AA2FB03235B091B01FB6237
:1006FC00FB6A1B09642202FB03F37A6AD31A3B627E
:10070C007B689B899BB21BB2002B0CDA3B6ADB002B
:10071C003233104AA2FB03235B0903F00703FA6A86
:10072C001343FB620BE03B6A1B013233094AA2FB09
:10073C0003235B0903F00F03FA6A1343FB62FB6AA2
:10074C009AB27B681A8100BF3037BD4680BD00BFAE
:10075C00003801401F85EB5180B483B000AF786046
:10076C000B46FB70FB78002B08D07B689B899BB2F7
:10077C0043F400539AB27B689A8107E07B689B89AB
:10078C009BB223F400539AB27B689A8100BF0C375A
:10079C00BD4680BC704780B487B000AF78600B4614
:1007AC007B8013467B7000233B610023FB6000239E
:1007BC00BB6000237B617B687B617B88DBB25B0960
:1007CC00DBB23B617B8803F01F03FB600122FB68FB
:1007DC0002FA03F3BB603B69012B03D17B690C3339
:1007EC007B6109E03B69022B03D17B6910337B6190
:1007FC0002E07B6914337B617B78002B06D07B692C
:10080C0019687B69BA680A431A6006E07B69196843
:10081C00BB68DA437B690A401A6000BF1C37BD46CF
:10082C0080BC704780B483B000AF78600B467B808F
:10083C007B88DB439AB27B681A8000BF0C37BD46BD
:10084C0080BC704780B487B000AF78600B467B806B
:10085C000023FB6000237B610023BB600023FB743F
:10086C007B88DBB25B09DBB2BB607B8803F01F03C8
:10087C007B6101227B6902FA03F37B61BB68012B6C
:10088C0007D17B689B899BB21A467B6913407B61BD
:10089C0011E0BB68022B07D17B681B8A9BB21A46FE
:1008AC007B6913407B6106E07B689B8A9BB21A468E
:1008BC007B6913407B617B881B0A9BB2FB60012226
:1008CC00FB6802FA03F3FB607B681B889BB21A4639
:1008DC00FB681340FB607B69002B05D0FB68002B89
:1008EC0002D00123FB7401E00023FB74FB7C18464F
:1008FC001C37BD4680BC704780B500AF012000F0AE
:10090C0013F800F017F900F053F84FF4E13000F051
:10091C004FFA044800F018FC4FF4966000F030F9E0
:10092C00F7E700BF3019000880B485B000AF03466C
:10093C00FB71FB79FB60FB685B06FB600B4B9B69F7
:10094C000A4A43F001039361094B5B68084A23F0A0
:10095C00E0635360064B5A680549FB6813434B60D0
:10096C0000BF1437BD4680BC704700BF001002406A
:10097C000000014080B400AF00BFBD4680BC704792
:10098C0080B400AFFEE780B400AFFEE780B400AFE8
:10099C00FEE780B400AF00BFBD4680BC704780B49A
:1009AC0000AFFEE780B400AF00BFBD4680BC70470F
:1009BC0080B500AF4FF4A060FFF7C2FB00BF80BD55
:1009CC0080B500AF154B1B68144A43F0010313604C
:1009DC00124B5A681149124B13404B600F4B1B685A
:1009EC000E4A23F0847323F4803313600B4B1B6883
:1009FC000A4A23F480231360084B5B68074A23F4EC
:100A0C00FE035360054B4FF41F029A6000F00CF884
:100A1C00044B4FF000629A6000BF80BD0010024092
:100A2C000000FFF800ED00E080B500AF00F002F828
:100A3C0000BF80BD80B483B000AF00237B60002377
:100A4C003B603A4B1B68394A43F480331360374B95
:100A5C001B6803F400333B607B6801337B603B68AD
:100A6C00002B03D17B68B3F5A06FF0D12F4B1B6823
:100A7C0003F40033002B02D001233B6001E0002380
:100A8C003B603B68012B4BD1294B1B68284A43F038
:100A9C0010031360264B1B68254A23F003031360D5
:100AAC00234B1B68224A43F0020313601F4B1F4A5F
:100ABC005B6853601D4B1D4A5B6853601B4B5B6846
:100ACC001A4A43F480635360184B5B68174A23F44B
:100ADC007C135360154B5B68144A43F4E813536062
:100AEC00124B1B68114A43F08073136000BF0F4B0D
:100AFC001B6803F00073002BF9D00C4B5B680B4A9E
:100B0C0023F003035360094B5B68084A43F002036C
:100B1C00536000BF054B5B6803F00C03082BF9D145
:100B2C0000BF0C37BD4680BC704700BF00100240B0
:100B3C000020024080B500AF6FF00400FFF774FB9B
:100B4C000B4B1B680B4AA2FB03235B0DDAB20A4B5F
:100B5C001A70094B1B789BB21A465201D21A92009A
:100B6C001344DB009AB2054B1A8000BF80BD00BF56
:100B7C001400002083DE1B43980000209A00002004
:100B8C0080B485B000AF0346FB80FB88154A128801
:100B9C001146154A01FB03F35360134B00229A6074
:100BAC00114B1B68104A43F0010313600E4B1B687A
:100BBC00FB60FB6803F00103002B04D0FB6803F41B
:100BCC008033002BF2D0084B1B68074A23F001033B
:100BDC001360054B00229A6000BF1437BD4680BCE1
:100BEC00704700BF9A00002010E000E080B500AF15
:100BFC0040F225511E48FFF725FE0346002B35D049
:100C0C001C4B1B887F2B02D91A4B00221A80184BC5
:100C1C009B8899B2174B1B885A1C90B2154A1080AE
:100C2C001A46C9B2144B9954124B1B88013B124AF9
:100C3C00D35C0A2B16D10F4B1B88023B0E4AD35C9C
:100C4C000D2B0FD10B4B1B88033B0B4AD35C0D2B8D
:100C5C0008D1084B1B88033B074A0021D154074B92
:100C6C0001221A7020210248FFF7DCFD00BF80BD75
:100C7C00004400401C0100209C0000201E010020AC
:100C8C0080B500AF0F20FFF77BFF044B01221A70D9
:100C9C000120FFF709FB00BF80BD00BF2001002031
:100CAC0080B500AF0A20FFF76BFF0420FFF7FCFABA
:100CBC0000BF80BD80B500AF0F20FFF761FF044B74
:100CCC0001221A700820FFF7EFFA00BF80BD00BFA9
:100CDC002001002080B500AF0F20FFF751FF044B1F
:100CEC0001221A701020FFF7DFFA00BF80BD00BF91
:100CFC002101002080B500AF4FF48050FFF7B0FA0F
:100D0C000346012B20D1134B1B78012B1CD8114B04
:100D1C001B78002B09D1104B00221A600E4B0122BC
:100D2C001A600E4B01221A6008E00C4B00221A606C
:100D3C00094B00221A60084B01221A60054B1B78E4
:100D4C000133DAB2034B1A704FF48050FFF7ACFA50
:100D5C0000BF80BD1F010020840123428C0123426F
:100D6C0080B487B000AFF860B9607A6000237B6113
:100D7C0011E000BF0D4B1B889BB203F04003002B0E
:100D8C00F8D07B69BA6813441A78084B92B29A80EF
:100D9C007B6901337B617A697B689A42E9DB7B680A
:100DAC0018461C37BD4680BC704700BF0038014058
:100DBC0080B588B000AF786001210420FFF7F4FB08
:100DCC0001214FF48040FFF7EFFB1823FB774FF422
:100DDC000073BB830323BB7707F11C0319461E4822
:100DEC00FFF770FA0423FB774FF48063BB83032374
:100DFC00BB7707F11C0319461748FFF763FA7B68AA
:100E0C00FB6000233B830C23FB820023BB8200236B
:100E1C007B8200233B8207F10C0319460F48FFF736
:100E2C00E1FB01210D48FFF797FC012240F225510F
:100E3C000A48FFF7B0FC25233B720123FB72002309
:100E4C007B720223BB7207F108031846FFF78AF97D
:100E5C0000BF2037BD4680BD00080140003801406E
:100E6C0080B500AF40F225510548FFF7EBFC034677
:100E7C00002B03D020210248FFF7D4FC00BF80BD1B
:100E8C0000380140002103E00B4B5B584350043108
:100E9C000A480B4B42189A42F6D30A4A02E0002346
:100EAC0042F8043B084B9A42F9D3FFF789FD00F056
:100EBC000FF8FFF721FD7047B4190008000000205F
:100ECC007C0000207C00002038010020FEE70000A0
:100EDC0070B500260C4D0D4C641BA410A64209D114
:100EEC0000F014FD00260A4D0A4C641BA410A64207
:100EFC0005D170BD55F8043B98470136EEE755F81F
:100F0C00043B98470136F2E7AC190008AC1900080D
:100F1C00AC190008B019000803460244934200D1F2
:100F2C00704703F8011BF9E738B50546002940D096
:100F3C0051F8043C0C1F002BB8BFE41800F0F8FB70
:100F4C001C4A136833B9636014602846BDE8384006
:100F5C0000F0F4BBA34208D9206821188B4201BFD2
:100F6C0019685B6809182160EDE71A465B680BB1DC
:100F7C00A342FAD911685018A0420BD12068014441
:100F8C00501883421160E0D118685B68014411600D
:100F9C005360DAE702D90C232B60D6E720682118BE
:100FAC008B4201BF19685B6809182160636054604B
:100FBC00CBE738BD24010020F8B5CD1C25F0030586
:100FCC0008350C2D38BF0C25002D064601DBA94237
:100FDC0003D90C2333600020F8BD00F0A9FB214994
:100FEC000A6814469CB9204F3B6823B92146304609
:100FFC0000F0B2F838602946304600F0ADF8431CDA
:10100C0023D10C233046336000F098FBE3E72368D0
:10101C005B1B17D40B2B03D923601C44256004E005
:10102C006368A2420CBF0B605360304600F086FB35
:10103C0004F10B00231D20F00700C21ACCD01B1AA0
:10104C00A350C9E722466468CCE7C41C24F003040F
:10105C00A042E3D0211A304600F07EF80130DDD1F9
:10106C00CFE700BF240100202801002070B50E46F8
:10107C00054618B183690BB900F054FAAB69AC683A
:10108C0013B9284600F04EFA2C4B9C4220D16C68C8
:10109C00636EDB0705D4A389980502D4A06D00F01C
:1010AC00DFFAA38919071DD52369DBB1013EA368BB
:1010BC0016F8011F013BA36039BB002B38DA22461E
:1010CC000A21284600F058F8013011D00A2511E009
:1010DC001B4B9C4201D1AC68DAE71A4B9C4208BF0F
:1010EC00EC68D5E72146284600F098F80028DDD0BA
:1010FC004FF0FF35636EDA0705D4A3899B0502D444
:10110C00A06D00F0AEFA284670BD002B04DAA2697F
:10111C009A4206DC0A2904D023685A1C22601970F2
:10112C00C5E72246284600F027F80130BFD1DFE79B
:10113C000A2523685A1C22601D70DBE76C19000815
:10114C008C1900084C190008024B01461868FFF76F
:10115C008DBF00BF1800002038B50023054D044694
:10116C0008462B6000F0C4FB431C02D12B6803B172
:10117C00236038BD30010020F8B50E4614460546F4
:10118C0018B183690BB900F0CDF9214B9C422BD1DE
:10119C006C68A369A360A3891A072FD523696BB365
:1011AC0023692068F6B2C01A63693746834204DCAF
:1011BC002146284600F022F930BBA3680130013BE0
:1011CC00A36023685A1C22601E706369834204D09A
:1011DC00A389DB0706D50A2E04D12146284600F048
:1011EC000DF988B93846F8BD0A4B9C4201D1AC6860
:1011FC00CFE7094B9C4208BFEC68CAE7214628465A
:10120C0000F00CF80028CBD04FF0FF37EAE700BF16
:10121C006C1900088C1900084C190008324B70B579
:10122C001D6806460C4625B1AB6913B9284600F07B
:10123C0079F92E4B9C420FD16C68A389B4F90C2020
:10124C0019072CD4DD0611D40923336042F0400376
:10125C004FF0FF30A3813EE0254B9C4201D1AC689E
:10126C00EBE7244B9C4208BFEC68E6E7580712D525
:10127C00616B41B104F14403994202D03046FFF74F
:10128C0053FE00236363A38923F02403A38100236B
:10129C00636023692360A38943F00803A381236956
:1012AC004BB9A38903F42073B3F5007F03D0214617
:1012BC00304600F0FDF9A089B4F90C2010F00103C0
:1012CC000AD00023A36063695B42A361236943B91D
:1012DC0010F08000BAD170BD810758BF6369A3605C
:1012EC00F4E70020F7E700BF180000206C19000895
:1012FC008C1900084C1900088A89F8B505461007A6
:10130C000C4657D44B68002B04DC0B6C002B01DC17
:10131C000020F8BDE66A002EFAD0002312F48052A9
:10132C002F682B6032D0606DA3895A0705D563688E
:10133C00C01A636B0BB1236CC01A00230246E66A19
:10134C002846216AB047431CA38906D129681D2968
:10135C002CD8294ACA40D60728D5002262602269B7
:10136C00D904226004D5421C01D12B6803B96065F5
:10137C00616B2F600029CBD004F14403994202D059
:10138C002846FFF7D1FD00206063C2E7216A0123E4
:10139C002846B047411CC7D12B68002BC4D01D2B4D
:1013AC0001D0162B01D12F60B2E7A38943F0400383
:1013BC00A381AEE70F69002FAAD0930718BF0023B3
:1013CC000E6808BF4B69F61B0F608B60002E9FDD0B
:1013DC0033463A462846216AD4F828C0E04700280C
:1013EC0006DCA3894FF0FF3043F04003A38190E764
:1013FC000744361AEAE700BF0100402038B50B69F4
:10140C0005460C4613B90025284638BD18B183692A
:10141C000BB900F087F8144B9C421BD16C68B4F9E3
:10142C000C30002BEFD0626ED00704D4990502D497
:10143C00A06D00F015F928462146FFF75DFF636E9D
:10144C000546DA07E0D4A3899B05DDD4A06D00F036
:10145C0008F9D9E7054B9C4201D1AC68DFE7044B96
:10146C009C4208BFEC68DAE76C1900088C1900087C
:10147C004C190008002310B50446C0E90033C0E93C
:10148C000433836081814366C281836119460822DB
:10149C005C30FFF741FD054B24626362044BA36291
:1014AC00044BE362044B236310BD00BF55170008C7
:1014BC0077170008AF170008D3170008014900F090
:1014CC00AFB800BF09140008682270B54D1E554313
:1014DC000E4605F17401FFF76FFD044640B1002183
:1014EC00C0E900160C30A06005F16802FFF714FD8E
:1014FC00204670BD014800F0B3B800BF2D0100209C
:10150C00014800F0AEB800BF2D010020014800F0EA
:10151C00A7B800BF2E010020014800F0A2B800BF00
:10152C002E01002010B50446FFF7F0FFA3691BB194
:10153C00BDE81040FFF7F0BFC4E912332365134B2D
:10154C00134A1B68A262A34208BF0123204608BFAE
:10155C00A36100F01FF86060204600F01BF8A0604B
:10156C00204600F017F800220421E0606068FFF7C5
:10157C0081FF01220921A068FFF77CFF02221221C2
:10158C00E068FFF777FF0123A361D1E74819000852
:10159C00C9140008F8B50746FFF7ACFF1E4B1E68D0
:1015AC00B36913B93046FFF7BDFF4836D6E90134AD
:1015BC00013B03D533680BB33668F7E7B4F90C502D
:1015CC00D5B9164B04F15800E360656600F047F896
:1015DC00FFF796FF08222946C4E90155C4E90455D2
:1015EC002560A56104F15C00FFF796FCC4E90D557C
:1015FC00C4E912552046F8BD6834D9E704213846B1
:10160C00FFF762FF044630600028D5D1FFF778FF62
:10161C000C233B60EEE700BF481900080100FFFFF8
:10162C002DE9F84306468846002700F14804D4E922
:10163C000195B9F1010905D52468002CF7D138467C
:10164C00BDE8F883AB89012B07D9B5F90E3001330E
:10165C0003D029463046C04707436835E9E7704751
:10166C007047704770B50E46B1F90E10144600293C
:10167C001D4696B008DA0022B6F90C302A601A061C
:10168C0010D44FF480630EE06A4600F0C3F80028D3
:10169C00F1DB019A02F47042A2F500535A425A410E
:1016AC002A60EEE740230020236016B070BD0000D6
:1016BC008B8973B59D0706460C4607D504F1470385
:1016CC00236023610123636102B070BD6A4601ABE4
:1016DC00FFF7C8FF009905463046FFF76DFC48B987
:1016EC00B4F90C309A05EFD423F0030343F0020352
:1016FC00A381E3E70D4BB362A389206043F0800321
:10170C00A381009B20616361019B5BB13046B4F9FE
:10171C000E1000F091F828B1A38923F0030343F0D5
:10172C000103A381A0890543A581CDE7C914000855
:10173C000148FFF795BF00BF2C0100200148FFF7BF
:10174C0090BF00BF2C01002010B50C46B1F90E1053
:10175C0000F094F80028ABBF636DA3891B1823F429
:10176C008053ACBF6365A38110BD2DE9F0411F46CA
:10177C008B890546DB050C46164605D5022300224F
:10178C00B1F90E1000F068F8A389324623F48053A7
:10179C00A38128463B46B4F90E10BDE8F04100F099
:1017AC0017B810B50C46B1F90E1000F055F8431CE3
:1017BC00A38915BF606523F4805343F48053A38140
:1017CC0018BFA38110BDB1F90E1000F013B80000C2
:1017DC0038B50446084611460022054D2A601A46C3
:1017EC00FFF7BEFA431C02D12B6803B1236038BD4E
:1017FC003001002038B50023054D044608462B6007
:10180C0000F04EF8431C02D12B6803B1236038BDA5
:10181C003001002038B50023064D04460846114619
:10182C002B6000F045F8431C02D12B6803B12360F8
:10183C0038BD00BF3001002038B50023054D0446EB
:10184C0008462B6000F03CF8431C02D12B6803B116
:10185C00236038BD3001002038B5044608461146D7
:10186C000022054D2A601A4600F032F8431C02D1C2
:10187C002B6803B1236038BD3001002038B5044615
:10188C00084611460022054D2A601A4600F028F839
:10189C00431C02D12B6803B1236038BD30010020FA
:1018AC005822024B4FF0FF301A6070473001002075
:1018BC005822024B4FF0FF301A6070473001002065
:1018CC005822024B00201A60704700BF30010020E4
:1018DC005822024B4FF0FF301A6070473001002045
:1018EC005822024B4FF0FF301A6070473001002035
:1018FC00044A05491368002B08BF0B4618441060B6
:10190C00184670473401002038010020F8B500BF9C
:10191C00F8BC08BC9E467047F8B500BFF8BC08BCC4
:04192C009E4670471C
:1019300068656C6C6F206E6577207465657474746F
:101940006573740D000000001C0000200000000002
:101950000000000000000000000000000000000087
:101960000000000000000000000000000000000077
:101970000000000000000000000000000000000067
:101980000000000000000000000000000000000057
:101990000000000000000000000000000000000047
:0C19A0000000000000000000000000003B
:0419AC0031010008FD
:0419B0000D0100081D
:1019B40000000000010203040102030406070809F1
:1019C4000204060800A24A041C00002000000000D3
:1019D4006C1900088C1900084C190008000000005C
:1019E40000000000000000000000000000000000F3
:1019F40000000000000000000000000000000000E3
:101A040000000000000000000000000000000000D2
:101A140000000000000000000000000000000000C2
:0C1A2400000000000000000000000000B6
:0400000508000E9150
:00000001FF
